{
  "_format": "hh-sol-artifact-1",
  "contractName": "TournamentRegistry",
  "sourceName": "contracts/TournamentRegistry.sol",
  "abi": [
    {
      "inputs": [],
      "stateMutability": "nonpayable",
      "type": "constructor"
    },
    {
      "anonymous": false,
      "inputs": [
        {
          "indexed": true,
          "internalType": "uint256",
          "name": "recordId",
          "type": "uint256"
        },
        {
          "indexed": true,
          "internalType": "address",
          "name": "champion",
          "type": "address"
        },
        {
          "indexed": false,
          "internalType": "uint256",
          "name": "timestamp",
          "type": "uint256"
        }
      ],
      "name": "TournamentFinalized",
      "type": "event"
    },
    {
      "anonymous": false,
      "inputs": [
        {
          "indexed": true,
          "internalType": "uint256",
          "name": "recordId",
          "type": "uint256"
        },
        {
          "indexed": false,
          "internalType": "string",
          "name": "tournamentName",
          "type": "string"
        },
        {
          "indexed": false,
          "internalType": "uint256",
          "name": "timestamp",
          "type": "uint256"
        },
        {
          "indexed": true,
          "internalType": "address",
          "name": "registeredBy",
          "type": "address"
        }
      ],
      "name": "TournamentRegistered",
      "type": "event"
    },
    {
      "inputs": [
        {
          "internalType": "uint256",
          "name": "_recordId",
          "type": "uint256"
        },
        {
          "internalType": "address",
          "name": "_champion",
          "type": "address"
        },
        {
          "internalType": "uint256[]",
          "name": "_scores",
          "type": "uint256[]"
        }
      ],
      "name": "finalizeTournament",
      "outputs": [],
      "stateMutability": "nonpayable",
      "type": "function"
    },
    {
      "inputs": [
        {
          "internalType": "address",
          "name": "_player",
          "type": "address"
        }
      ],
      "name": "getPlayerHistory",
      "outputs": [
        {
          "internalType": "uint256[]",
          "name": "playerHistory",
          "type": "uint256[]"
        }
      ],
      "stateMutability": "view",
      "type": "function"
    },
    {
      "inputs": [
        {
          "internalType": "address",
          "name": "_player",
          "type": "address"
        }
      ],
      "name": "getPlayerStats",
      "outputs": [
        {
          "internalType": "uint256",
          "name": "wins",
          "type": "uint256"
        },
        {
          "internalType": "uint256",
          "name": "totalParticipations",
          "type": "uint256"
        }
      ],
      "stateMutability": "view",
      "type": "function"
    },
    {
      "inputs": [],
      "name": "getTotalRecords",
      "outputs": [
        {
          "internalType": "uint256",
          "name": "count",
          "type": "uint256"
        }
      ],
      "stateMutability": "view",
      "type": "function"
    },
    {
      "inputs": [
        {
          "internalType": "uint256",
          "name": "_recordId",
          "type": "uint256"
        }
      ],
      "name": "getTournamentRecord",
      "outputs": [
        {
          "internalType": "uint256",
          "name": "recordId",
          "type": "uint256"
        },
        {
          "internalType": "string",
          "name": "tournamentName",
          "type": "string"
        },
        {
          "internalType": "uint256",
          "name": "startTime",
          "type": "uint256"
        },
        {
          "internalType": "uint256",
          "name": "endTime",
          "type": "uint256"
        },
        {
          "internalType": "address",
          "name": "champion",
          "type": "address"
        },
        {
          "internalType": "address[]",
          "name": "players",
          "type": "address[]"
        },
        {
          "internalType": "uint256[]",
          "name": "scores",
          "type": "uint256[]"
        },
        {
          "internalType": "string[]",
          "name": "aliases",
          "type": "string[]"
        },
        {
          "internalType": "bool",
          "name": "isFinalized",
          "type": "bool"
        }
      ],
      "stateMutability": "view",
      "type": "function"
    },
    {
      "inputs": [
        {
          "internalType": "uint256",
          "name": "_recordId",
          "type": "uint256"
        },
        {
          "internalType": "address",
          "name": "_player",
          "type": "address"
        }
      ],
      "name": "isPlayerInTournament",
      "outputs": [
        {
          "internalType": "bool",
          "name": "participated",
          "type": "bool"
        }
      ],
      "stateMutability": "view",
      "type": "function"
    },
    {
      "inputs": [
        {
          "internalType": "string",
          "name": "_name",
          "type": "string"
        },
        {
          "internalType": "address[]",
          "name": "_players",
          "type": "address[]"
        },
        {
          "internalType": "string[]",
          "name": "_aliases",
          "type": "string[]"
        }
      ],
      "name": "registerTournament",
      "outputs": [
        {
          "internalType": "uint256",
          "name": "newRecordId",
          "type": "uint256"
        }
      ],
      "stateMutability": "nonpayable",
      "type": "function"
    }
  ],
  "bytecode": "0x608060405234801561001057600080fd5b506000600181905550612499806100286000396000f3fe608060405234801561001057600080fd5b506004361061007d5760003560e01c80634fd66eae1161005b5780634fd66eae146101085780638249a69c14610139578063c44b383014610169578063fef4bb1c146101855761007d565b80630aeacb5e1461008257806319756cec146100a0578063399af318146100d0575b600080fd5b61008a6101b5565b6040516100979190611360565b60405180910390f35b6100ba60048036038101906100b591906116dc565b6101bf565b6040516100c79190611360565b60405180910390f35b6100ea60048036038101906100e591906117af565b61043c565b6040516100ff99989796959493929190611b0d565b60405180910390f35b610122600480360381019061011d9190611bb6565b6107e0565b604051610130929190611be3565b60405180910390f35b610153600480360381019061014e9190611bb6565b610b8b565b6040516101609190611c0c565b60405180910390f35b610183600480360381019061017e9190611cf1565b610d80565b005b61019f600480360381019061019a9190611d60565b61101e565b6040516101ac9190611da0565b60405180910390f35b6000600154905090565b600080845111610204576040517f08c379a00000000000000000000000000000000000000000000000000000000081526004016101fb90611e07565b60405180910390fd5b600283511015610249576040517f08c379a000000000000000000000000000000000000000000000000000000000815260040161024090611e73565b60405180910390fd5b815183511461028d576040517f08c379a000000000000000000000000000000000000000000000000000000000815260040161028490611edf565b60405180910390fd5b600154905060008060008381526020019081526020016000209050818160000181905550848160010190816102c2919061210b565b504281600201819055506000816003018190555060008160040160006101000a81548173ffffffffffffffffffffffffffffffffffffffff021916908373ffffffffffffffffffffffffffffffffffffffff16021790555083816005019080519060200190610332929190611196565b50835167ffffffffffffffff81111561034e5761034d6113aa565b5b60405190808252806020026020018201604052801561037c5781602001602082028036833780820191505090505b50816006019080519060200190610394929190611220565b50828160070190805190602001906103ad92919061126d565b5060008160080160006101000a81548160ff021916908315150217905550600160008154809291906103de9061220c565b91905055503373ffffffffffffffffffffffffffffffffffffffff16827fb84fab35e0a39a608221ef89d3806001a5341e1adfc96bb4b91a773d7068f945874260405161042c929190612254565b60405180910390a3509392505050565b600060606000806000606080606060006001548a10610490576040517f08c379a0000000000000000000000000000000000000000000000000000000008152600401610487906122d0565b60405180910390fd5b60008060008c815260200190815260200160002060405180610120016040529081600082015481526020016001820180546104ca90611f2e565b80601f01602080910402602001604051908101604052809291908181526020018280546104f690611f2e565b80156105435780601f1061051857610100808354040283529160200191610543565b820191906000526020600020905b81548152906001019060200180831161052657829003601f168201915b5050505050815260200160028201548152602001600382015481526020016004820160009054906101000a900473ffffffffffffffffffffffffffffffffffffffff1673ffffffffffffffffffffffffffffffffffffffff1673ffffffffffffffffffffffffffffffffffffffff1681526020016005820180548060200260200160405190810160405280929190818152602001828054801561063b57602002820191906000526020600020905b8160009054906101000a900473ffffffffffffffffffffffffffffffffffffffff1673ffffffffffffffffffffffffffffffffffffffff16815260200190600101908083116105f1575b505050505081526020016006820180548060200260200160405190810160405280929190818152602001828054801561069357602002820191906000526020600020905b81548152602001906001019080831161067f575b5050505050815260200160078201805480602002602001604051908101604052809291908181526020016000905b8282101561076d5783829060005260206000200180546106e090611f2e565b80601f016020809104026020016040519081016040528092919081815260200182805461070c90611f2e565b80156107595780601f1061072e57610100808354040283529160200191610759565b820191906000526020600020905b81548152906001019060200180831161073c57829003601f168201915b5050505050815260200190600101906106c1565b5050505081526020016008820160009054906101000a900460ff1615151515815250509050806000015181602001518260400151836060015184608001518560a001518660c001518760e00151886101000151995099509950995099509950995099509950509193959799909294969850565b600080600091506000905060005b600154811015610b85576000806000838152602001908152602001600020604051806101200160405290816000820154815260200160018201805461083290611f2e565b80601f016020809104026020016040519081016040528092919081815260200182805461085e90611f2e565b80156108ab5780601f10610880576101008083540402835291602001916108ab565b820191906000526020600020905b81548152906001019060200180831161088e57829003601f168201915b5050505050815260200160028201548152602001600382015481526020016004820160009054906101000a900473ffffffffffffffffffffffffffffffffffffffff1673ffffffffffffffffffffffffffffffffffffffff1673ffffffffffffffffffffffffffffffffffffffff168152602001600582018054806020026020016040519081016040528092919081815260200182805480156109a357602002820191906000526020600020905b8160009054906101000a900473ffffffffffffffffffffffffffffffffffffffff1673ffffffffffffffffffffffffffffffffffffffff1681526020019060010190808311610959575b50505050508152602001600682018054806020026020016040519081016040528092919081815260200182805480156109fb57602002820191906000526020600020905b8154815260200190600101908083116109e7575b5050505050815260200160078201805480602002602001604051908101604052809291908181526020016000905b82821015610ad5578382906000526020600020018054610a4890611f2e565b80601f0160208091040260200160405190810160405280929190818152602001828054610a7490611f2e565b8015610ac15780601f10610a9657610100808354040283529160200191610ac1565b820191906000526020600020905b815481529060010190602001808311610aa457829003601f168201915b505050505081526020019060010190610a29565b5050505081526020016008820160009054906101000a900460ff1615151515815250509050610b08858260a0015161110f565b15610b71578280610b189061220c565b9350508061010001518015610b5c57508473ffffffffffffffffffffffffffffffffffffffff16816080015173ffffffffffffffffffffffffffffffffffffffff16145b15610b70578380610b6c9061220c565b9450505b5b508080610b7d9061220c565b9150506107ee565b50915091565b6060600060015467ffffffffffffffff811115610bab57610baa6113aa565b5b604051908082528060200260200182016040528015610bd95781602001602082028036833780820191505090505b5090506000805b600154811015610cd457610c8d85600080848152602001908152602001600020600501805480602002602001604051908101604052809291908181526020018280548015610c8357602002820191906000526020600020905b8160009054906101000a900473ffffffffffffffffffffffffffffffffffffffff1673ffffffffffffffffffffffffffffffffffffffff1681526020019060010190808311610c39575b505050505061110f565b15610cc15780838381518110610ca657610ca56122f0565b5b6020026020010181815250508180610cbd9061220c565b9250505b8080610ccc9061220c565b915050610be0565b508067ffffffffffffffff811115610cef57610cee6113aa565b5b604051908082528060200260200182016040528015610d1d5781602001602082028036833780820191505090505b50925060005b81811015610d7857828181518110610d3e57610d3d6122f0565b5b6020026020010151848281518110610d5957610d586122f0565b5b6020026020010181815250508080610d709061220c565b915050610d23565b505050919050565b6001548310610dc4576040517f08c379a0000000000000000000000000000000000000000000000000000000008152600401610dbb906122d0565b60405180910390fd5b600080600085815260200190815260200160002090508060080160009054906101000a900460ff1615610e2c576040517f08c379a0000000000000000000000000000000000000000000000000000000008152600401610e239061236b565b60405180910390fd5b8060050180549050825114610e76576040517f08c379a0000000000000000000000000000000000000000000000000000000008152600401610e6d906123d7565b60405180910390fd5b610f088382600501805480602002602001604051908101604052809291908181526020018280548015610efe57602002820191906000526020600020905b8160009054906101000a900473ffffffffffffffffffffffffffffffffffffffff1673ffffffffffffffffffffffffffffffffffffffff1681526020019060010190808311610eb4575b505050505061110f565b610f47576040517f08c379a0000000000000000000000000000000000000000000000000000000008152600401610f3e90612443565b60405180910390fd5b828160040160006101000a81548173ffffffffffffffffffffffffffffffffffffffff021916908373ffffffffffffffffffffffffffffffffffffffff16021790555081816006019080519060200190610fa2929190611220565b5042816003018190555060018160080160006101000a81548160ff0219169083151502179055508273ffffffffffffffffffffffffffffffffffffffff16847fcd5519d1592919f2c62aab2d2cf839d435a03371a12798d4d35542f466d2730c426040516110109190611360565b60405180910390a350505050565b60006001548310611064576040517f08c379a000000000000000000000000000000000000000000000000000000000815260040161105b906122d0565b60405180910390fd5b611107826000808681526020019081526020016000206005018054806020026020016040519081016040528092919081815260200182805480156110fd57602002820191906000526020600020905b8160009054906101000a900473ffffffffffffffffffffffffffffffffffffffff1673ffffffffffffffffffffffffffffffffffffffff16815260200190600101908083116110b3575b505050505061110f565b905092915050565b600080600090505b825181101561118a578373ffffffffffffffffffffffffffffffffffffffff1683828151811061114a576111496122f0565b5b602002602001015173ffffffffffffffffffffffffffffffffffffffff1603611177576001915050611190565b80806111829061220c565b915050611117565b50600090505b92915050565b82805482825590600052602060002090810192821561120f579160200282015b8281111561120e5782518260006101000a81548173ffffffffffffffffffffffffffffffffffffffff021916908373ffffffffffffffffffffffffffffffffffffffff160217905550916020019190600101906111b6565b5b50905061121c91906112c6565b5090565b82805482825590600052602060002090810192821561125c579160200282015b8281111561125b578251825591602001919060010190611240565b5b50905061126991906112c6565b5090565b8280548282559060005260206000209081019282156112b5579160200282015b828111156112b45782518290816112a4919061210b565b509160200191906001019061128d565b5b5090506112c291906112e3565b5090565b5b808211156112df5760008160009055506001016112c7565b5090565b5b8082111561130357600081816112fa9190611307565b506001016112e4565b5090565b50805461131390611f2e565b6000825580601f106113255750611344565b601f01602090049060005260206000209081019061134391906112c6565b5b50565b6000819050919050565b61135a81611347565b82525050565b60006020820190506113756000830184611351565b92915050565b6000604051905090565b600080fd5b600080fd5b600080fd5b600080fd5b6000601f19601f8301169050919050565b7f4e487b7100000000000000000000000000000000000000000000000000000000600052604160045260246000fd5b6113e282611399565b810181811067ffffffffffffffff82111715611401576114006113aa565b5b80604052505050565b600061141461137b565b905061142082826113d9565b919050565b600067ffffffffffffffff8211156114405761143f6113aa565b5b61144982611399565b9050602081019050919050565b82818337600083830152505050565b600061147861147384611425565b61140a565b90508281526020810184848401111561149457611493611394565b5b61149f848285611456565b509392505050565b600082601f8301126114bc576114bb61138f565b5b81356114cc848260208601611465565b91505092915050565b600067ffffffffffffffff8211156114f0576114ef6113aa565b5b602082029050602081019050919050565b600080fd5b600073ffffffffffffffffffffffffffffffffffffffff82169050919050565b600061153182611506565b9050919050565b61154181611526565b811461154c57600080fd5b50565b60008135905061155e81611538565b92915050565b6000611577611572846114d5565b61140a565b9050808382526020820190506020840283018581111561159a57611599611501565b5b835b818110156115c357806115af888261154f565b84526020840193505060208101905061159c565b5050509392505050565b600082601f8301126115e2576115e161138f565b5b81356115f2848260208601611564565b91505092915050565b600067ffffffffffffffff821115611616576116156113aa565b5b602082029050602081019050919050565b600061163a611635846115fb565b61140a565b9050808382526020820190506020840283018581111561165d5761165c611501565b5b835b818110156116a457803567ffffffffffffffff8111156116825761168161138f565b5b80860161168f89826114a7565b8552602085019450505060208101905061165f565b5050509392505050565b600082601f8301126116c3576116c261138f565b5b81356116d3848260208601611627565b91505092915050565b6000806000606084860312156116f5576116f4611385565b5b600084013567ffffffffffffffff8111156117135761171261138a565b5b61171f868287016114a7565b935050602084013567ffffffffffffffff8111156117405761173f61138a565b5b61174c868287016115cd565b925050604084013567ffffffffffffffff81111561176d5761176c61138a565b5b611779868287016116ae565b9150509250925092565b61178c81611347565b811461179757600080fd5b50565b6000813590506117a981611783565b92915050565b6000602082840312156117c5576117c4611385565b5b60006117d38482850161179a565b91505092915050565b600081519050919050565b600082825260208201905092915050565b60005b838110156118165780820151818401526020810190506117fb565b60008484015250505050565b600061182d826117dc565b61183781856117e7565b93506118478185602086016117f8565b61185081611399565b840191505092915050565b61186481611526565b82525050565b600081519050919050565b600082825260208201905092915050565b6000819050602082019050919050565b61189f81611526565b82525050565b60006118b18383611896565b60208301905092915050565b6000602082019050919050565b60006118d58261186a565b6118df8185611875565b93506118ea83611886565b8060005b8381101561191b57815161190288826118a5565b975061190d836118bd565b9250506001810190506118ee565b5085935050505092915050565b600081519050919050565b600082825260208201905092915050565b6000819050602082019050919050565b61195d81611347565b82525050565b600061196f8383611954565b60208301905092915050565b6000602082019050919050565b600061199382611928565b61199d8185611933565b93506119a883611944565b8060005b838110156119d95781516119c08882611963565b97506119cb8361197b565b9250506001810190506119ac565b5085935050505092915050565b600081519050919050565b600082825260208201905092915050565b6000819050602082019050919050565b600082825260208201905092915050565b6000611a2e826117dc565b611a388185611a12565b9350611a488185602086016117f8565b611a5181611399565b840191505092915050565b6000611a688383611a23565b905092915050565b6000602082019050919050565b6000611a88826119e6565b611a9281856119f1565b935083602082028501611aa485611a02565b8060005b85811015611ae05784840389528151611ac18582611a5c565b9450611acc83611a70565b925060208a01995050600181019050611aa8565b50829750879550505050505092915050565b60008115159050919050565b611b0781611af2565b82525050565b600061012082019050611b23600083018c611351565b8181036020830152611b35818b611822565b9050611b44604083018a611351565b611b516060830189611351565b611b5e608083018861185b565b81810360a0830152611b7081876118ca565b905081810360c0830152611b848186611988565b905081810360e0830152611b988185611a7d565b9050611ba8610100830184611afe565b9a9950505050505050505050565b600060208284031215611bcc57611bcb611385565b5b6000611bda8482850161154f565b91505092915050565b6000604082019050611bf86000830185611351565b611c056020830184611351565b9392505050565b60006020820190508181036000830152611c268184611988565b905092915050565b600067ffffffffffffffff821115611c4957611c486113aa565b5b602082029050602081019050919050565b6000611c6d611c6884611c2e565b61140a565b90508083825260208201905060208402830185811115611c9057611c8f611501565b5b835b81811015611cb95780611ca5888261179a565b845260208401935050602081019050611c92565b5050509392505050565b600082601f830112611cd857611cd761138f565b5b8135611ce8848260208601611c5a565b91505092915050565b600080600060608486031215611d0a57611d09611385565b5b6000611d188682870161179a565b9350506020611d298682870161154f565b925050604084013567ffffffffffffffff811115611d4a57611d4961138a565b5b611d5686828701611cc3565b9150509250925092565b60008060408385031215611d7757611d76611385565b5b6000611d858582860161179a565b9250506020611d968582860161154f565b9150509250929050565b6000602082019050611db56000830184611afe565b92915050565b7f546f75726e616d656e74206e616d652072657175697265640000000000000000600082015250565b6000611df16018836117e7565b9150611dfc82611dbb565b602082019050919050565b60006020820190508181036000830152611e2081611de4565b9050919050565b7f4d696e696d756d203220706c6179657273207265717569726564000000000000600082015250565b6000611e5d601a836117e7565b9150611e6882611e27565b602082019050919050565b60006020820190508181036000830152611e8c81611e50565b9050919050565b7f506c617965727320616e6420616c6961736573206d69736d6174636800000000600082015250565b6000611ec9601c836117e7565b9150611ed482611e93565b602082019050919050565b60006020820190508181036000830152611ef881611ebc565b9050919050565b7f4e487b7100000000000000000000000000000000000000000000000000000000600052602260045260246000fd5b60006002820490506001821680611f4657607f821691505b602082108103611f5957611f58611eff565b5b50919050565b60008190508160005260206000209050919050565b60006020601f8301049050919050565b600082821b905092915050565b600060088302611fc17fffffffffffffffffffffffffffffffffffffffffffffffffffffffffffffffff82611f84565b611fcb8683611f84565b95508019841693508086168417925050509392505050565b6000819050919050565b6000612008612003611ffe84611347565b611fe3565b611347565b9050919050565b6000819050919050565b61202283611fed565b61203661202e8261200f565b848454611f91565b825550505050565b600090565b61204b61203e565b612056818484612019565b505050565b5b8181101561207a5761206f600082612043565b60018101905061205c565b5050565b601f8211156120bf5761209081611f5f565b61209984611f74565b810160208510156120a8578190505b6120bc6120b485611f74565b83018261205b565b50505b505050565b600082821c905092915050565b60006120e2600019846008026120c4565b1980831691505092915050565b60006120fb83836120d1565b9150826002028217905092915050565b612114826117dc565b67ffffffffffffffff81111561212d5761212c6113aa565b5b6121378254611f2e565b61214282828561207e565b600060209050601f8311600181146121755760008415612163578287015190505b61216d85826120ef565b8655506121d5565b601f19841661218386611f5f565b60005b828110156121ab57848901518255600182019150602085019450602081019050612186565b868310156121c857848901516121c4601f8916826120d1565b8355505b6001600288020188555050505b505050505050565b7f4e487b7100000000000000000000000000000000000000000000000000000000600052601160045260246000fd5b600061221782611347565b91507fffffffffffffffffffffffffffffffffffffffffffffffffffffffffffffffff8203612249576122486121dd565b5b600182019050919050565b6000604082019050818103600083015261226e8185611822565b905061227d6020830184611351565b9392505050565b7f546f75726e616d656e74207265636f726420646f6573206e6f74206578697374600082015250565b60006122ba6020836117e7565b91506122c582612284565b602082019050919050565b600060208201905081810360008301526122e9816122ad565b9050919050565b7f4e487b7100000000000000000000000000000000000000000000000000000000600052603260045260246000fd5b7f546f75726e616d656e7420616c72656164792066696e616c697a656400000000600082015250565b6000612355601c836117e7565b91506123608261231f565b602082019050919050565b6000602082019050818103600083015261238481612348565b9050919050565b7f496e76616c69642073636f726573206172726179000000000000000000000000600082015250565b60006123c16014836117e7565b91506123cc8261238b565b602082019050919050565b600060208201905081810360008301526123f0816123b4565b9050919050565b7f4368616d70696f6e206e6f7420696e20706c61796572206c6973740000000000600082015250565b600061242d601b836117e7565b9150612438826123f7565b602082019050919050565b6000602082019050818103600083015261245c81612420565b905091905056fea264697066735822122075631595cc89d29c4a13fa716c4107b96ecff07f96e614ca8606be4d2bbb486d64736f6c63430008130033",
  "linkReferences": {},
  "deployedLinkReferences": {}
}